{
  "contractName": "HelloWorld",
  "abi": [
    {
      "inputs": [],
      "payable": false,
      "stateMutability": "nonpayable",
      "type": "constructor"
    },
    {
      "constant": true,
      "inputs": [],
      "name": "name",
      "outputs": [
        {
          "internalType": "string",
          "name": "",
          "type": "string"
        }
      ],
      "payable": false,
      "stateMutability": "view",
      "type": "function"
    },
    {
      "constant": false,
      "inputs": [
        {
          "internalType": "string",
          "name": "nm",
          "type": "string"
        }
      ],
      "name": "setName",
      "outputs": [],
      "payable": false,
      "stateMutability": "nonpayable",
      "type": "function"
    }
  ],
  "bytecode": "0x608060405234801561001057600080fd5b506040518060400160405280600b81526020017f416c6d6f7574616e6162690000000000000000000000000000000000000000008152506000908051906020019061005c929190610062565b50610107565b828054600181600116156101000203166002900490600052602060002090601f016020900481019282601f106100a357805160ff19168380011785556100d1565b828001600101855582156100d1579182015b828111156100d05782518255916020019190600101906100b5565b5b5090506100de91906100e2565b5090565b61010491905b808211156101005760008160009055506001016100e8565b5090565b90565b610328806101166000396000f3fe608060405234801561001057600080fd5b5060043610610053576000357c01000000000000000000000000000000000000000000000000000000009004806306fdde0314610058578063c47f0027146100db575b600080fd5b610060610196565b6040518080602001828103825283818151815260200191508051906020019080838360005b838110156100a0578082015181840152602081019050610085565b50505050905090810190601f1680156100cd5780820380516001836020036101000a031916815260200191505b509250505060405180910390f35b610194600480360360208110156100f157600080fd5b810190808035906020019064010000000081111561010e57600080fd5b82018360208201111561012057600080fd5b8035906020019184600183028401116401000000008311171561014257600080fd5b91908080601f016020809104026020016040519081016040528093929190818152602001838380828437600081840152601f19601f820116905080830192505050505050509192919290505050610234565b005b60008054600181600116156101000203166002900480601f01602080910402602001604051908101604052809291908181526020018280546001816001161561010002031660029004801561022c5780601f106102015761010080835404028352916020019161022c565b820191906000526020600020905b81548152906001019060200180831161020f57829003601f168201915b505050505081565b806000908051906020019061024a92919061024e565b5050565b828054600181600116156101000203166002900490600052602060002090601f016020900481019282601f1061028f57805160ff19168380011785556102bd565b828001600101855582156102bd579182015b828111156102bc5782518255916020019190600101906102a1565b5b5090506102ca91906102ce565b5090565b6102f091905b808211156102ec5760008160009055506001016102d4565b5090565b9056fea265627a7a72315820c34542076efab252586aec4161a53f6e682fb8d871c80296a93f9b8bf03bad0164736f6c63430005100032",
  "source": "pragma solidity >=0.4.22 <0.9.0;\r\n\r\ncontract HelloWorld{\r\n    string public name ;\r\n\r\n    constructor() public {\r\n        name = \"Almoutanabi\";\r\n    }\r\n\r\n    function setName (string memory nm) public {\r\n        name = nm ;\r\n    }\r\n    \r\n\r\n\r\n\r\n\r\n}",
  "sourcePath": "C:\\Users\\hp\\Desktop\\Security_Project_Dart\\pass_vaccinal_verification\\contracts\\HelloWorld.sol",
  "compiler": {
    "name": "solc",
    "version": "0.5.16+commit.9c3226ce.Emscripten.clang"
  },
  "schemaVersion": "3.4.3",
  "updatedAt": "2021-11-21T13:48:11.494Z",
  "devdoc": {
    "methods": {}
  },
  "userdoc": {
    "methods": {}
  }
}