{
  "contractName": "Vaccination",
  "abi": [
    {
      "inputs": [],
      "payable": false,
      "stateMutability": "nonpayable",
      "type": "constructor"
    },
    {
      "anonymous": false,
      "inputs": [
        {
          "indexed": false,
          "internalType": "uint256",
          "name": "_id",
          "type": "uint256"
        }
      ],
      "name": "OwnerAdded",
      "type": "event"
    },
    {
      "anonymous": false,
      "inputs": [
        {
          "indexed": false,
          "internalType": "uint256",
          "name": "_id",
          "type": "uint256"
        }
      ],
      "name": "OwnerDeleted",
      "type": "event"
    },
    {
      "anonymous": false,
      "inputs": [
        {
          "indexed": false,
          "internalType": "uint256",
          "name": "_id",
          "type": "uint256"
        }
      ],
      "name": "OwnerVerified",
      "type": "event"
    },
    {
      "constant": true,
      "inputs": [],
      "name": "nbOwners",
      "outputs": [
        {
          "internalType": "uint256",
          "name": "",
          "type": "uint256"
        }
      ],
      "payable": false,
      "stateMutability": "view",
      "type": "function"
    },
    {
      "constant": true,
      "inputs": [
        {
          "internalType": "uint256",
          "name": "",
          "type": "uint256"
        }
      ],
      "name": "owners",
      "outputs": [
        {
          "internalType": "uint256",
          "name": "id",
          "type": "uint256"
        },
        {
          "internalType": "string",
          "name": "CIN",
          "type": "string"
        },
        {
          "internalType": "string",
          "name": "FullName",
          "type": "string"
        },
        {
          "internalType": "string",
          "name": "qrHash",
          "type": "string"
        },
        {
          "internalType": "string",
          "name": "vaccine_name",
          "type": "string"
        },
        {
          "internalType": "uint256",
          "name": "nb_shots",
          "type": "uint256"
        }
      ],
      "payable": false,
      "stateMutability": "view",
      "type": "function"
    },
    {
      "constant": false,
      "inputs": [
        {
          "internalType": "string",
          "name": "_cin",
          "type": "string"
        },
        {
          "internalType": "string",
          "name": "_fullName",
          "type": "string"
        },
        {
          "internalType": "string",
          "name": "_qrhash",
          "type": "string"
        },
        {
          "internalType": "string",
          "name": "_nameOfvaccine",
          "type": "string"
        },
        {
          "internalType": "uint256",
          "name": "_nbOfshots",
          "type": "uint256"
        }
      ],
      "name": "addOwner",
      "outputs": [],
      "payable": false,
      "stateMutability": "nonpayable",
      "type": "function"
    },
    {
      "constant": false,
      "inputs": [
        {
          "internalType": "uint256",
          "name": "_id",
          "type": "uint256"
        }
      ],
      "name": "deleteOwner",
      "outputs": [],
      "payable": false,
      "stateMutability": "nonpayable",
      "type": "function"
    },
    {
      "constant": false,
      "inputs": [
        {
          "internalType": "string",
          "name": "qr",
          "type": "string"
        }
      ],
      "name": "verifyOwner",
      "outputs": [
        {
          "internalType": "bool",
          "name": "",
          "type": "bool"
        }
      ],
      "payable": false,
      "stateMutability": "nonpayable",
      "type": "function"
    }
  ],
  "bytecode": "0x608060405234801561001057600080fd5b5060008081905550610d0c806100276000396000f3fe608060405234801561001057600080fd5b5060043610610074576000357c010000000000000000000000000000000000000000000000000000000090048063025e7c27146100795780633e116de514610272578063780dd0cf14610345578063b55a124a14610373578063f4c66cbc146105fd575b600080fd5b6100a56004803603602081101561008f57600080fd5b810190808035906020019092919050505061061b565b604051808781526020018060200180602001806020018060200186815260200185810385528a818151815260200191508051906020019080838360005b838110156100fd5780820151818401526020810190506100e2565b50505050905090810190601f16801561012a5780820380516001836020036101000a031916815260200191505b50858103845289818151815260200191508051906020019080838360005b83811015610163578082015181840152602081019050610148565b50505050905090810190601f1680156101905780820380516001836020036101000a031916815260200191505b50858103835288818151815260200191508051906020019080838360005b838110156101c95780820151818401526020810190506101ae565b50505050905090810190601f1680156101f65780820380516001836020036101000a031916815260200191505b50858103825287818151815260200191508051906020019080838360005b8381101561022f578082015181840152602081019050610214565b50505050905090810190601f16801561025c5780820380516001836020036101000a031916815260200191505b509a505050505050505050505060405180910390f35b61032b6004803603602081101561028857600080fd5b81019080803590602001906401000000008111156102a557600080fd5b8201836020820111156102b757600080fd5b803590602001918460018302840111640100000000831117156102d957600080fd5b91908080601f016020809104026020016040519081016040528093929190818152602001838380828437600081840152601f19601f8201169050808301925050505050505091929192905050506108c4565b604051808215151515815260200191505060405180910390f35b6103716004803603602081101561035b57600080fd5b8101908080359060200190929190505050610a02565b005b6105fb600480360360a081101561038957600080fd5b81019080803590602001906401000000008111156103a657600080fd5b8201836020820111156103b857600080fd5b803590602001918460018302840111640100000000831117156103da57600080fd5b91908080601f016020809104026020016040519081016040528093929190818152602001838380828437600081840152601f19601f8201169050808301925050505050505091929192908035906020019064010000000081111561043d57600080fd5b82018360208201111561044f57600080fd5b8035906020019184600183028401116401000000008311171561047157600080fd5b91908080601f016020809104026020016040519081016040528093929190818152602001838380828437600081840152601f19601f820116905080830192505050505050509192919290803590602001906401000000008111156104d457600080fd5b8201836020820111156104e657600080fd5b8035906020019184600183028401116401000000008311171561050857600080fd5b91908080601f016020809104026020016040519081016040528093929190818152602001838380828437600081840152601f19601f8201169050808301925050505050505091929192908035906020019064010000000081111561056b57600080fd5b82018360208201111561057d57600080fd5b8035906020019184600183028401116401000000008311171561059f57600080fd5b91908080601f016020809104026020016040519081016040528093929190818152602001838380828437600081840152601f19601f82011690508083019250505050505050919291929080359060200190929190505050610abc565b005b610605610be4565b6040518082815260200191505060405180910390f35b6001818154811061062857fe5b9060005260206000209060060201600091509050806000015490806001018054600181600116156101000203166002900480601f0160208091040260200160405190810160405280929190818152602001828054600181600116156101000203166002900480156106da5780601f106106af576101008083540402835291602001916106da565b820191906000526020600020905b8154815290600101906020018083116106bd57829003601f168201915b505050505090806002018054600181600116156101000203166002900480601f0160208091040260200160405190810160405280929190818152602001828054600181600116156101000203166002900480156107785780601f1061074d57610100808354040283529160200191610778565b820191906000526020600020905b81548152906001019060200180831161075b57829003601f168201915b505050505090806003018054600181600116156101000203166002900480601f0160208091040260200160405190810160405280929190818152602001828054600181600116156101000203166002900480156108165780601f106107eb57610100808354040283529160200191610816565b820191906000526020600020905b8154815290600101906020018083116107f957829003601f168201915b505050505090806004018054600181600116156101000203166002900480601f0160208091040260200160405190810160405280929190818152602001828054600181600116156101000203166002900480156108b45780601f10610889576101008083540402835291602001916108b4565b820191906000526020600020905b81548152906001019060200180831161089757829003601f168201915b5050505050908060050154905086565b600080600090506001805490508110156109fb57826040516020018082805190602001908083835b6020831061090f57805182526020820191506020810190506020830392506108ec565b6001836020036101000a038019825116818451168082178552505050505050905001915050604051602081830303815290604052805190602001206001828154811061095757fe5b906000526020600020906006020160030160405160200180828054600181600116156101000203166002900480156109c65780601f106109a45761010080835404028352918201916109c6565b820191906000526020600020905b8154815290600101906020018083116109b2575b50509150506040516020818303038152906040528051906020012014156109f15760019150506109fd565b60009150506109fd565b505b919050565b60018181548110610a0f57fe5b9060005260206000209060060201600080820160009055600182016000610a369190610bea565b600282016000610a469190610bea565b600382016000610a569190610bea565b600482016000610a669190610bea565b600582016000905550507fac81cd35bb860c391bbd547550abd951ad1757096882e4112332a179654afde2816040518082815260200191505060405180910390a160008081548092919060019003919050555050565b6040518060c00160405280600054815260200186815260200185815260200184815260200183815260200182815250600160005481548110610afa57fe5b9060005260206000209060060201600082015181600001556020820151816001019080519060200190610b2e929190610c32565b506040820151816002019080519060200190610b4b929190610c32565b506060820151816003019080519060200190610b68929190610c32565b506080820151816004019080519060200190610b85929190610c32565b5060a082015181600501559050507f2cc68aab0ad495ce4982e3321fcfb3a2c5d006ac2bc3b8df09cb78b400b3a2d76000546040518082815260200191505060405180910390a160008081548092919060010191905055505050505050565b60005481565b50805460018160011615610100020316600290046000825580601f10610c105750610c2f565b601f016020900490600052602060002090810190610c2e9190610cb2565b5b50565b828054600181600116156101000203166002900490600052602060002090601f016020900481019282601f10610c7357805160ff1916838001178555610ca1565b82800160010185558215610ca1579182015b82811115610ca0578251825591602001919060010190610c85565b5b509050610cae9190610cb2565b5090565b610cd491905b80821115610cd0576000816000905550600101610cb8565b5090565b9056fea265627a7a723158207559f140a4050f0e36a4774ada69898a2c2dc1f06584c032c3fd7413c8c000f064736f6c63430005100032",
  "source": "pragma solidity >=0.4.22 <0.9.0;\r\n\r\ncontract Vaccination{\r\n\r\n    uint public nbOwners ;\r\n\r\n    struct Owner{\r\n\r\n        uint256 id ;\r\n        string CIN ;\r\n        string FullName ;\r\n        string qrHash ;\r\n        string vaccine_name;\r\n        uint nb_shots ;\r\n\r\n    }\r\n    Owner[] public owners ;\r\n\r\n    constructor() public {\r\n\r\n        nbOwners = 0;\r\n    }\r\n\r\n    event OwnerAdded(uint256 _id);\r\n    event OwnerVerified(uint _id);\r\n    event OwnerDeleted(uint _id);\r\n\r\n\r\n    function addOwner(string memory _cin , string memory _fullName , string memory _qrhash , string memory _nameOfvaccine, uint _nbOfshots) public {\r\n\r\n        owners[nbOwners] = Owner(nbOwners , _cin , _fullName , _qrhash , _nameOfvaccine , _nbOfshots);\r\n        emit OwnerAdded(nbOwners);\r\n\r\n        nbOwners++; \r\n\r\n    }\r\n\r\n    function deleteOwner(uint256 _id) public{\r\n        delete owners[_id] ;\r\n        emit OwnerDeleted(_id);\r\n        nbOwners--;\r\n\r\n    }\r\n\r\n    function verifyOwner(string memory qr) public returns(bool ){\r\n\r\n        for(uint i=0 ; i< owners.length ; i++){\r\n            if(keccak256(abi.encodePacked(owners[i].qrHash)) == keccak256(abi.encodePacked(qr))){\r\n                return true;\r\n            }\r\n            return false ;\r\n\r\n        }\r\n    }\r\n    \r\n}",
  "sourcePath": "C:\\Users\\hp\\Desktop\\Security_Project_Dart\\pass_vaccinal_verification\\contracts\\Vaccination.sol",
  "compiler": {
    "name": "solc",
    "version": "0.5.16+commit.9c3226ce.Emscripten.clang"
  },
  "schemaVersion": "3.4.3",
  "updatedAt": "2021-11-21T13:48:24.457Z",
  "networkType": "ethereum",
  "devdoc": {
    "methods": {}
  },
  "userdoc": {
    "methods": {}
  }
}